{
  "contractName": "MultiSigWallet",
  "abi": [
    {
      "inputs": [
        {
          "internalType": "address[]",
          "name": "_owners",
          "type": "address[]"
        },
        {
          "internalType": "uint256",
          "name": "_numConfirmationsRequired",
          "type": "uint256"
        }
      ],
      "stateMutability": "nonpayable",
      "type": "constructor"
    },
    {
      "anonymous": false,
      "inputs": [
        {
          "indexed": true,
          "internalType": "address",
          "name": "owner",
          "type": "address"
        },
        {
          "indexed": true,
          "internalType": "uint256",
          "name": "txIndex",
          "type": "uint256"
        }
      ],
      "name": "ConfirmTransaction",
      "type": "event"
    },
    {
      "anonymous": false,
      "inputs": [
        {
          "indexed": true,
          "internalType": "address",
          "name": "sender",
          "type": "address"
        },
        {
          "indexed": false,
          "internalType": "uint256",
          "name": "amount",
          "type": "uint256"
        },
        {
          "indexed": false,
          "internalType": "uint256",
          "name": "balance",
          "type": "uint256"
        }
      ],
      "name": "Deposit",
      "type": "event"
    },
    {
      "anonymous": false,
      "inputs": [
        {
          "indexed": true,
          "internalType": "address",
          "name": "owner",
          "type": "address"
        },
        {
          "indexed": true,
          "internalType": "uint256",
          "name": "txIndex",
          "type": "uint256"
        }
      ],
      "name": "ExecuteTransaction",
      "type": "event"
    },
    {
      "anonymous": false,
      "inputs": [
        {
          "indexed": true,
          "internalType": "address",
          "name": "owner",
          "type": "address"
        },
        {
          "indexed": true,
          "internalType": "uint256",
          "name": "txIndex",
          "type": "uint256"
        }
      ],
      "name": "RevokeTransaction",
      "type": "event"
    },
    {
      "anonymous": false,
      "inputs": [
        {
          "indexed": true,
          "internalType": "address",
          "name": "owner",
          "type": "address"
        },
        {
          "indexed": true,
          "internalType": "uint256",
          "name": "txIndex",
          "type": "uint256"
        },
        {
          "indexed": true,
          "internalType": "address",
          "name": "to",
          "type": "address"
        },
        {
          "indexed": false,
          "internalType": "uint256",
          "name": "value",
          "type": "uint256"
        },
        {
          "indexed": false,
          "internalType": "bytes",
          "name": "data",
          "type": "bytes"
        }
      ],
      "name": "SubmitTransaction",
      "type": "event"
    },
    {
      "stateMutability": "payable",
      "type": "fallback",
      "payable": true
    },
    {
      "inputs": [
        {
          "internalType": "address",
          "name": "",
          "type": "address"
        }
      ],
      "name": "isOwner",
      "outputs": [
        {
          "internalType": "bool",
          "name": "",
          "type": "bool"
        }
      ],
      "stateMutability": "view",
      "type": "function",
      "constant": true
    },
    {
      "inputs": [],
      "name": "numConfirmationsRequired",
      "outputs": [
        {
          "internalType": "uint256",
          "name": "",
          "type": "uint256"
        }
      ],
      "stateMutability": "view",
      "type": "function",
      "constant": true
    },
    {
      "inputs": [
        {
          "internalType": "uint256",
          "name": "",
          "type": "uint256"
        }
      ],
      "name": "owners",
      "outputs": [
        {
          "internalType": "address",
          "name": "",
          "type": "address"
        }
      ],
      "stateMutability": "view",
      "type": "function",
      "constant": true
    },
    {
      "inputs": [
        {
          "internalType": "uint256",
          "name": "",
          "type": "uint256"
        }
      ],
      "name": "transactions",
      "outputs": [
        {
          "internalType": "address",
          "name": "to",
          "type": "address"
        },
        {
          "internalType": "uint256",
          "name": "value",
          "type": "uint256"
        },
        {
          "internalType": "bytes",
          "name": "data",
          "type": "bytes"
        },
        {
          "internalType": "bool",
          "name": "executed",
          "type": "bool"
        },
        {
          "internalType": "uint256",
          "name": "numConfirmations",
          "type": "uint256"
        }
      ],
      "stateMutability": "view",
      "type": "function",
      "constant": true
    },
    {
      "stateMutability": "payable",
      "type": "receive",
      "payable": true
    },
    {
      "inputs": [],
      "name": "deposit",
      "outputs": [],
      "stateMutability": "payable",
      "type": "function",
      "payable": true
    },
    {
      "inputs": [
        {
          "internalType": "address",
          "name": "_to",
          "type": "address"
        },
        {
          "internalType": "uint256",
          "name": "_value",
          "type": "uint256"
        },
        {
          "internalType": "bytes",
          "name": "_data",
          "type": "bytes"
        }
      ],
      "name": "submitTransaction",
      "outputs": [],
      "stateMutability": "nonpayable",
      "type": "function"
    },
    {
      "inputs": [
        {
          "internalType": "uint256",
          "name": "_txIndex",
          "type": "uint256"
        }
      ],
      "name": "confirmTransaction",
      "outputs": [],
      "stateMutability": "nonpayable",
      "type": "function"
    },
    {
      "inputs": [
        {
          "internalType": "uint256",
          "name": "_txIndex",
          "type": "uint256"
        }
      ],
      "name": "executeTransaction",
      "outputs": [],
      "stateMutability": "nonpayable",
      "type": "function"
    },
    {
      "inputs": [
        {
          "internalType": "uint256",
          "name": "_txIndex",
          "type": "uint256"
        }
      ],
      "name": "revokeConfirmation",
      "outputs": [],
      "stateMutability": "nonpayable",
      "type": "function"
    },
    {
      "inputs": [],
      "name": "getOwners",
      "outputs": [
        {
          "internalType": "address[]",
          "name": "",
          "type": "address[]"
        }
      ],
      "stateMutability": "view",
      "type": "function",
      "constant": true
    },
    {
      "inputs": [],
      "name": "getTransactionCount",
      "outputs": [
        {
          "internalType": "uint256",
          "name": "",
          "type": "uint256"
        }
      ],
      "stateMutability": "view",
      "type": "function",
      "constant": true
    },
    {
      "inputs": [
        {
          "internalType": "uint256",
          "name": "_txIndex",
          "type": "uint256"
        }
      ],
      "name": "getTransaction",
      "outputs": [
        {
          "internalType": "address",
          "name": "to",
          "type": "address"
        },
        {
          "internalType": "uint256",
          "name": "value",
          "type": "uint256"
        },
        {
          "internalType": "bytes",
          "name": "data",
          "type": "bytes"
        },
        {
          "internalType": "bool",
          "name": "executed",
          "type": "bool"
        },
        {
          "internalType": "uint256",
          "name": "numConfirmations",
          "type": "uint256"
        }
      ],
      "stateMutability": "view",
      "type": "function",
      "constant": true
    }
  ],
  "bytecode": "0x60806040523480156200001157600080fd5b50604051620026f4380380620026f483398181016040528101906200003791906200050c565b60008251116200007e576040517f08c379a00000000000000000000000000000000000000000000000000000000081526004016200007590620005d3565b60405180910390fd5b60008111801562000090575081518111155b620000d2576040517f08c379a0000000000000000000000000000000000000000000000000000000008152600401620000c9906200066b565b60405180910390fd5b60005b8251811015620002d3576000838281518110620000f757620000f66200068d565b5b60200260200101519050600073ffffffffffffffffffffffffffffffffffffffff168173ffffffffffffffffffffffffffffffffffffffff160362000173576040517f08c379a00000000000000000000000000000000000000000000000000000000081526004016200016a906200070c565b60405180910390fd5b600260008273ffffffffffffffffffffffffffffffffffffffff1673ffffffffffffffffffffffffffffffffffffffff16815260200190815260200160002060009054906101000a900460ff161562000203576040517f08c379a0000000000000000000000000000000000000000000000000000000008152600401620001fa906200077e565b60405180910390fd5b6001600260008373ffffffffffffffffffffffffffffffffffffffff1673ffffffffffffffffffffffffffffffffffffffff16815260200190815260200160002060006101000a81548160ff0219169083151502179055506000819080600181540180825580915050600190039060005260206000200160009091909190916101000a81548173ffffffffffffffffffffffffffffffffffffffff021916908373ffffffffffffffffffffffffffffffffffffffff1602179055505080620002cb90620007cf565b9050620000d5565b508060018190555050506200081c565b6000604051905090565b600080fd5b600080fd5b600080fd5b6000601f19601f8301169050919050565b7f4e487b7100000000000000000000000000000000000000000000000000000000600052604160045260246000fd5b6200034782620002fc565b810181811067ffffffffffffffff821117156200036957620003686200030d565b5b80604052505050565b60006200037e620002e3565b90506200038c82826200033c565b919050565b600067ffffffffffffffff821115620003af57620003ae6200030d565b5b602082029050602081019050919050565b600080fd5b600073ffffffffffffffffffffffffffffffffffffffff82169050919050565b6000620003f282620003c5565b9050919050565b6200040481620003e5565b81146200041057600080fd5b50565b6000815190506200042481620003f9565b92915050565b6000620004416200043b8462000391565b62000372565b90508083825260208201905060208402830185811115620004675762000466620003c0565b5b835b818110156200049457806200047f888262000413565b84526020840193505060208101905062000469565b5050509392505050565b600082601f830112620004b657620004b5620002f7565b5b8151620004c88482602086016200042a565b91505092915050565b6000819050919050565b620004e681620004d1565b8114620004f257600080fd5b50565b6000815190506200050681620004db565b92915050565b60008060408385031215620005265762000525620002ed565b5b600083015167ffffffffffffffff811115620005475762000546620002f2565b5b62000555858286016200049e565b92505060206200056885828601620004f5565b9150509250929050565b600082825260208201905092915050565b7f4f776e6572732072657175697265640000000000000000000000000000000000600082015250565b6000620005bb600f8362000572565b9150620005c88262000583565b602082019050919050565b60006020820190508181036000830152620005ee81620005ac565b9050919050565b7f496e76616c6964206e756d626572206f6620726571756972656420636f6e666960008201527f726d6174696f6e73000000000000000000000000000000000000000000000000602082015250565b60006200065360288362000572565b91506200066082620005f5565b604082019050919050565b60006020820190508181036000830152620006868162000644565b9050919050565b7f4e487b7100000000000000000000000000000000000000000000000000000000600052603260045260246000fd5b7f496e76616c696420616464726573730000000000000000000000000000000000600082015250565b6000620006f4600f8362000572565b91506200070182620006bc565b602082019050919050565b600060208201905081810360008301526200072781620006e5565b9050919050565b7f4f776e6572206e6f7420756e6971756500000000000000000000000000000000600082015250565b60006200076660108362000572565b915062000773826200072e565b602082019050919050565b60006020820190508181036000830152620007998162000757565b9050919050565b7f4e487b7100000000000000000000000000000000000000000000000000000000600052601160045260246000fd5b6000620007dc82620004d1565b91507fffffffffffffffffffffffffffffffffffffffffffffffffffffffffffffffff8203620008115762000810620007a0565b5b600182019050919050565b611ec8806200082c6000396000f3fe6080604052600436106100ab5760003560e01c8063a0e67e2b11610064578063a0e67e2b14610254578063c01a8c841461027f578063c6427474146102a8578063d0549b85146102d1578063d0e30db0146102fc578063ee22610b1461030657610102565b8063025e7c271461010457806320ea8d86146101415780632e7700f01461016a5780632f54bf6e1461019557806333ea3dc8146101d25780639ace38c21461021357610102565b36610102573373ffffffffffffffffffffffffffffffffffffffff167f90890809c654f11d6e72a28fa60149770a0d11ec6c92319d6ceb2bb0a4ea1a1534476040516100f8929190611149565b60405180910390a2005b005b34801561011057600080fd5b5061012b600480360381019061012691906111b2565b61032f565b6040516101389190611220565b60405180910390f35b34801561014d57600080fd5b50610168600480360381019061016391906111b2565b61036e565b005b34801561017657600080fd5b5061017f61063f565b60405161018c919061123b565b60405180910390f35b3480156101a157600080fd5b506101bc60048036038101906101b79190611282565b61064c565b6040516101c991906112ca565b60405180910390f35b3480156101de57600080fd5b506101f960048036038101906101f491906111b2565b61066c565b60405161020a959493929190611375565b60405180910390f35b34801561021f57600080fd5b5061023a600480360381019061023591906111b2565b61077f565b60405161024b959493929190611375565b60405180910390f35b34801561026057600080fd5b5061026961087a565b604051610276919061148d565b60405180910390f35b34801561028b57600080fd5b506102a660048036038101906102a191906111b2565b610908565b005b3480156102b457600080fd5b506102cf60048036038101906102ca91906115e4565b610bdd565b005b3480156102dd57600080fd5b506102e6610de0565b6040516102f3919061123b565b60405180910390f35b610304610de6565b005b34801561031257600080fd5b5061032d600480360381019061032891906111b2565b610e38565b005b6000818154811061033f57600080fd5b906000526020600020016000915054906101000a900473ffffffffffffffffffffffffffffffffffffffff1681565b600260003373ffffffffffffffffffffffffffffffffffffffff1673ffffffffffffffffffffffffffffffffffffffff16815260200190815260200160002060009054906101000a900460ff166103fa576040517f08c379a00000000000000000000000000000000000000000000000000000000081526004016103f1906116b0565b60405180910390fd5b806003805490508110610442576040517f08c379a00000000000000000000000000000000000000000000000000000000081526004016104399061171c565b60405180910390fd5b81600381815481106104575761045661173c565b5b906000526020600020906005020160030160009054906101000a900460ff166104b5576040517f08c379a00000000000000000000000000000000000000000000000000000000081526004016104ac906117b7565b60405180910390fd5b6004600084815260200190815260200160002060003373ffffffffffffffffffffffffffffffffffffffff1673ffffffffffffffffffffffffffffffffffffffff16815260200190815260200160002060009054906101000a900460ff16610552576040517f08c379a000000000000000000000000000000000000000000000000000000000815260040161054990611849565b60405180910390fd5b60006004600085815260200190815260200160002060003373ffffffffffffffffffffffffffffffffffffffff1673ffffffffffffffffffffffffffffffffffffffff16815260200190815260200160002060006101000a81548160ff021916908315150217905550600383815481106105cf576105ce61173c565b5b906000526020600020906005020160040160008154809291906105f190611898565b9190505550823373ffffffffffffffffffffffffffffffffffffffff167f1ad870073a851011d852bccd8634c29c7c0ac2265ba96d2bab01285001a465a860405160405180910390a3505050565b6000600380549050905090565b60026020528060005260406000206000915054906101000a900460ff1681565b600080606060008060006003878154811061068a5761068961173c565b5b906000526020600020906005020190508060000160009054906101000a900473ffffffffffffffffffffffffffffffffffffffff168160010154826002018360030160009054906101000a900460ff1684600401548280546106eb906118f0565b80601f0160208091040260200160405190810160405280929190818152602001828054610717906118f0565b80156107645780601f1061073957610100808354040283529160200191610764565b820191906000526020600020905b81548152906001019060200180831161074757829003601f168201915b50505050509250955095509550955095505091939590929450565b6003818154811061078f57600080fd5b90600052602060002090600502016000915090508060000160009054906101000a900473ffffffffffffffffffffffffffffffffffffffff16908060010154908060020180546107de906118f0565b80601f016020809104026020016040519081016040528092919081815260200182805461080a906118f0565b80156108575780601f1061082c57610100808354040283529160200191610857565b820191906000526020600020905b81548152906001019060200180831161083a57829003601f168201915b5050505050908060030160009054906101000a900460ff16908060040154905085565b606060008054806020026020016040519081016040528092919081815260200182805480156108fe57602002820191906000526020600020905b8160009054906101000a900473ffffffffffffffffffffffffffffffffffffffff1673ffffffffffffffffffffffffffffffffffffffff16815260200190600101908083116108b4575b5050505050905090565b600260003373ffffffffffffffffffffffffffffffffffffffff1673ffffffffffffffffffffffffffffffffffffffff16815260200190815260200160002060009054906101000a900460ff16610994576040517f08c379a000000000000000000000000000000000000000000000000000000000815260040161098b906116b0565b60405180910390fd5b8060038054905081106109dc576040517f08c379a00000000000000000000000000000000000000000000000000000000081526004016109d39061171c565b60405180910390fd5b81600381815481106109f1576109f061173c565b5b906000526020600020906005020160030160009054906101000a900460ff1615610a50576040517f08c379a0000000000000000000000000000000000000000000000000000000008152600401610a479061196d565b60405180910390fd5b826004600082815260200190815260200160002060003373ffffffffffffffffffffffffffffffffffffffff1673ffffffffffffffffffffffffffffffffffffffff16815260200190815260200160002060009054906101000a900460ff1615610aef576040517f08c379a0000000000000000000000000000000000000000000000000000000008152600401610ae6906119d9565b60405180910390fd5b60016004600086815260200190815260200160002060003373ffffffffffffffffffffffffffffffffffffffff1673ffffffffffffffffffffffffffffffffffffffff16815260200190815260200160002060006101000a81548160ff02191690831515021790555060038481548110610b6c57610b6b61173c565b5b90600052602060002090600502016004016000815480929190610b8e906119f9565b9190505550833373ffffffffffffffffffffffffffffffffffffffff167f5cbe105e36805f7820e291f799d5794ff948af2a5f664e580382defb6339004160405160405180910390a350505050565b600260003373ffffffffffffffffffffffffffffffffffffffff1673ffffffffffffffffffffffffffffffffffffffff16815260200190815260200160002060009054906101000a900460ff16610c69576040517f08c379a0000000000000000000000000000000000000000000000000000000008152600401610c60906116b0565b60405180910390fd5b6000600380549050905060036040518060a001604052808673ffffffffffffffffffffffffffffffffffffffff1681526020018581526020018481526020016000151581526020016000815250908060018154018082558091505060019003906000526020600020906005020160009091909190915060008201518160000160006101000a81548173ffffffffffffffffffffffffffffffffffffffff021916908373ffffffffffffffffffffffffffffffffffffffff160217905550602082015181600101556040820151816002019081610d459190611bed565b5060608201518160030160006101000a81548160ff0219169083151502179055506080820151816004015550508373ffffffffffffffffffffffffffffffffffffffff16813373ffffffffffffffffffffffffffffffffffffffff167fd5a05bf70715ad82a09a756320284a1b54c9ff74cd0f8cce6219e79b563fe59d8686604051610dd2929190611cbf565b60405180910390a450505050565b60015481565b3373ffffffffffffffffffffffffffffffffffffffff167f90890809c654f11d6e72a28fa60149770a0d11ec6c92319d6ceb2bb0a4ea1a153447604051610e2e929190611149565b60405180910390a2565b600260003373ffffffffffffffffffffffffffffffffffffffff1673ffffffffffffffffffffffffffffffffffffffff16815260200190815260200160002060009054906101000a900460ff16610ec4576040517f08c379a0000000000000000000000000000000000000000000000000000000008152600401610ebb906116b0565b60405180910390fd5b806003805490508110610f0c576040517f08c379a0000000000000000000000000000000000000000000000000000000008152600401610f039061171c565b60405180910390fd5b8160038181548110610f2157610f2061173c565b5b906000526020600020906005020160030160009054906101000a900460ff1615610f80576040517f08c379a0000000000000000000000000000000000000000000000000000000008152600401610f779061196d565b60405180910390fd5b600060038481548110610f9657610f9561173c565b5b9060005260206000209060050201905060015481600401541015610fef576040517f08c379a0000000000000000000000000000000000000000000000000000000008152600401610fe690611d61565b60405180910390fd5b60018160030160006101000a81548160ff02191690831515021790555060008160000160009054906101000a900473ffffffffffffffffffffffffffffffffffffffff1673ffffffffffffffffffffffffffffffffffffffff1682600101548360020160405161105f9190611e0f565b60006040518083038185875af1925050503d806000811461109c576040519150601f19603f3d011682016040523d82523d6000602084013e6110a1565b606091505b50509050806110e5576040517f08c379a00000000000000000000000000000000000000000000000000000000081526004016110dc90611e72565b60405180910390fd5b843373ffffffffffffffffffffffffffffffffffffffff167f5445f318f4f5fcfb66592e68e0cc5822aa15664039bd5f0ffde24c5a8142b1ac60405160405180910390a35050505050565b6000819050919050565b61114381611130565b82525050565b600060408201905061115e600083018561113a565b61116b602083018461113a565b9392505050565b6000604051905090565b600080fd5b600080fd5b61118f81611130565b811461119a57600080fd5b50565b6000813590506111ac81611186565b92915050565b6000602082840312156111c8576111c761117c565b5b60006111d68482850161119d565b91505092915050565b600073ffffffffffffffffffffffffffffffffffffffff82169050919050565b600061120a826111df565b9050919050565b61121a816111ff565b82525050565b60006020820190506112356000830184611211565b92915050565b6000602082019050611250600083018461113a565b92915050565b61125f816111ff565b811461126a57600080fd5b50565b60008135905061127c81611256565b92915050565b6000602082840312156112985761129761117c565b5b60006112a68482850161126d565b91505092915050565b60008115159050919050565b6112c4816112af565b82525050565b60006020820190506112df60008301846112bb565b92915050565b600081519050919050565b600082825260208201905092915050565b60005b8381101561131f578082015181840152602081019050611304565b60008484015250505050565b6000601f19601f8301169050919050565b6000611347826112e5565b61135181856112f0565b9350611361818560208601611301565b61136a8161132b565b840191505092915050565b600060a08201905061138a6000830188611211565b611397602083018761113a565b81810360408301526113a9818661133c565b90506113b860608301856112bb565b6113c5608083018461113a565b9695505050505050565b600081519050919050565b600082825260208201905092915050565b6000819050602082019050919050565b611404816111ff565b82525050565b600061141683836113fb565b60208301905092915050565b6000602082019050919050565b600061143a826113cf565b61144481856113da565b935061144f836113eb565b8060005b83811015611480578151611467888261140a565b975061147283611422565b925050600181019050611453565b5085935050505092915050565b600060208201905081810360008301526114a7818461142f565b905092915050565b600080fd5b600080fd5b7f4e487b7100000000000000000000000000000000000000000000000000000000600052604160045260246000fd5b6114f18261132b565b810181811067ffffffffffffffff821117156115105761150f6114b9565b5b80604052505050565b6000611523611172565b905061152f82826114e8565b919050565b600067ffffffffffffffff82111561154f5761154e6114b9565b5b6115588261132b565b9050602081019050919050565b82818337600083830152505050565b600061158761158284611534565b611519565b9050828152602081018484840111156115a3576115a26114b4565b5b6115ae848285611565565b509392505050565b600082601f8301126115cb576115ca6114af565b5b81356115db848260208601611574565b91505092915050565b6000806000606084860312156115fd576115fc61117c565b5b600061160b8682870161126d565b935050602061161c8682870161119d565b925050604084013567ffffffffffffffff81111561163d5761163c611181565b5b611649868287016115b6565b9150509250925092565b600082825260208201905092915050565b7f4e6f7420616e206f776e65720000000000000000000000000000000000000000600082015250565b600061169a600c83611653565b91506116a582611664565b602082019050919050565b600060208201905081810360008301526116c98161168d565b9050919050565b7f5472616e73616374696f6e20646f6573206e6f74206578697374000000000000600082015250565b6000611706601a83611653565b9150611711826116d0565b602082019050919050565b60006020820190508181036000830152611735816116f9565b9050919050565b7f4e487b7100000000000000000000000000000000000000000000000000000000600052603260045260246000fd5b7f5472616e73616374696f6e20686173206e6f7420657865637574656400000000600082015250565b60006117a1601c83611653565b91506117ac8261176b565b602082019050919050565b600060208201905081810360008301526117d081611794565b9050919050565b7f53656e64657220686173206e6f7420636f6e6669726d6564207468652074726160008201527f6e73616374696f6e000000000000000000000000000000000000000000000000602082015250565b6000611833602883611653565b915061183e826117d7565b604082019050919050565b6000602082019050818103600083015261186281611826565b9050919050565b7f4e487b7100000000000000000000000000000000000000000000000000000000600052601160045260246000fd5b60006118a382611130565b9150600082036118b6576118b5611869565b5b600182039050919050565b7f4e487b7100000000000000000000000000000000000000000000000000000000600052602260045260246000fd5b6000600282049050600182168061190857607f821691505b60208210810361191b5761191a6118c1565b5b50919050565b7f5472616e73616374696f6e2068617320616c7265616479206578656375746564600082015250565b6000611957602083611653565b915061196282611921565b602082019050919050565b600060208201905081810360008301526119868161194a565b9050919050565b7f5472616e73616374696f6e20697320616c726561647920636f6e6669726d6564600082015250565b60006119c3602083611653565b91506119ce8261198d565b602082019050919050565b600060208201905081810360008301526119f2816119b6565b9050919050565b6000611a0482611130565b91507fffffffffffffffffffffffffffffffffffffffffffffffffffffffffffffffff8203611a3657611a35611869565b5b600182019050919050565b60008190508160005260206000209050919050565b60006020601f8301049050919050565b600082821b905092915050565b600060088302611aa37fffffffffffffffffffffffffffffffffffffffffffffffffffffffffffffffff82611a66565b611aad8683611a66565b95508019841693508086168417925050509392505050565b6000819050919050565b6000611aea611ae5611ae084611130565b611ac5565b611130565b9050919050565b6000819050919050565b611b0483611acf565b611b18611b1082611af1565b848454611a73565b825550505050565b600090565b611b2d611b20565b611b38818484611afb565b505050565b5b81811015611b5c57611b51600082611b25565b600181019050611b3e565b5050565b601f821115611ba157611b7281611a41565b611b7b84611a56565b81016020851015611b8a578190505b611b9e611b9685611a56565b830182611b3d565b50505b505050565b600082821c905092915050565b6000611bc460001984600802611ba6565b1980831691505092915050565b6000611bdd8383611bb3565b9150826002028217905092915050565b611bf6826112e5565b67ffffffffffffffff811115611c0f57611c0e6114b9565b5b611c1982546118f0565b611c24828285611b60565b600060209050601f831160018114611c575760008415611c45578287015190505b611c4f8582611bd1565b865550611cb7565b601f198416611c6586611a41565b60005b82811015611c8d57848901518255600182019150602085019450602081019050611c68565b86831015611caa5784890151611ca6601f891682611bb3565b8355505b6001600288020188555050505b505050505050565b6000604082019050611cd4600083018561113a565b8181036020830152611ce6818461133c565b90509392505050565b7f4e6f7420656e6f75676820636f6e6669726d6174696f6e7320746f206578656360008201527f7574652074780000000000000000000000000000000000000000000000000000602082015250565b6000611d4b602683611653565b9150611d5682611cef565b604082019050919050565b60006020820190508181036000830152611d7a81611d3e565b9050919050565b600081905092915050565b60008154611d99816118f0565b611da38186611d81565b94506001821660008114611dbe5760018114611dd357611e06565b60ff1983168652811515820286019350611e06565b611ddc85611a41565b60005b83811015611dfe57815481890152600182019150602081019050611ddf565b838801955050505b50505092915050565b6000611e1b8284611d8c565b915081905092915050565b7f5472616e73616374696f6e206661696c65640000000000000000000000000000600082015250565b6000611e5c601283611653565b9150611e6782611e26565b602082019050919050565b60006020820190508181036000830152611e8b81611e4f565b905091905056fea2646970667358221220ef42a0eb753469abee8824ee2cab6fe4860905776f2e060abf17d48550a2d86164736f6c63430008100033",
  "immutableReferences": {},
  "source": "// SPDX-License-Identifier: MIT\r\npragma solidity >=0.7.0 <0.9.0;\r\n\r\n// [\"0x5B38Da6a701c568545dCfcB03FcB875f56beddC4\",\"0xAb8483F64d9C6d1EcF9b849Ae677dD3315835cb2\",\"0x4B20993Bc481177ec7E8f571ceCaE8A9e22C02db\"]\r\n// send ether to: 0x78731D3Ca6b7E34aC0F824c42a7cC18A495cabaB, 1000000000000000000, 0x00\r\n// call TestContract callMe() function: 0x5FD6eB55D12E759a21C09eF703fe0CBa1DC9d88D, 0, 0xe73620c3000000000000000000000000000000000000000000000000000000000000007b\r\n\r\ncontract MultiSigWallet {\r\n    event Deposit(address indexed sender, uint amount, uint balance); \r\n    event SubmitTransaction(address indexed owner, uint indexed txIndex, address indexed to, uint value, bytes data);\r\n    event ConfirmTransaction(address indexed owner, uint indexed txIndex);\r\n    event ExecuteTransaction(address indexed owner, uint indexed txIndex);\r\n    event RevokeTransaction(address indexed owner, uint indexed txIndex);\r\n    \r\n    /* State Variables */\r\n    address[] public owners;\r\n    uint public numConfirmationsRequired;\r\n    mapping(address => bool) public isOwner;\r\n\r\n    /* \r\n        When a tranaction is submitted a new instance of transaction is created\r\n        and pushed to the transactions array.\r\n    */\r\n    struct Transaction {\r\n        address to; // the address the transaction is sent to\r\n        uint value; // the amount of ether sent to the address\r\n        bytes data; // the transaction data that can be use when transaction is sent to another contract\r\n        bool executed; // if the transaction has executed\r\n        uint numConfirmations; // \r\n    }\r\n\r\n    Transaction[] public transactions;\r\n\r\n    // for each transaction index we will have a mapping of key addresses with bool values\r\n    // when an owner approves their address is stored in the mapping as true\r\n    mapping(uint => mapping(address => bool)) isConfirmed; \r\n\r\n    /* Modifiers */\r\n    modifier onlyOwner() {\r\n        require(isOwner[msg.sender], \"Not an owner\");\r\n        _;\r\n    }\r\n\r\n    modifier txExists(uint _txIndex) {\r\n        require(_txIndex < transactions.length, \"Transaction does not exist\");\r\n        _;\r\n    }\r\n\r\n    modifier notExecuted(uint _txIndex) {\r\n        require(!transactions[_txIndex].executed, \"Transaction has already executed\");\r\n        _;\r\n    }\r\n\r\n    modifier notConfirmed(uint _txIndex) {\r\n        require(!isConfirmed[_txIndex][msg.sender], \"Transaction is already confirmed\");\r\n        _;\r\n    }\r\n\r\n    modifier isExecuted(uint _txIndex) {\r\n        require(transactions[_txIndex].executed, \"Transaction has not executed\");\r\n        _;\r\n    }\r\n\r\n    constructor(address[] memory _owners, uint _numConfirmationsRequired) {\r\n        require(_owners.length > 0, \"Owners required\");\r\n        require(_numConfirmationsRequired > 0 && \r\n            _numConfirmationsRequired <= _owners.length, \"Invalid number of required confirmations\");\r\n\r\n        for (uint i = 0; i < _owners.length; ++i) {\r\n            address owner = _owners[i];\r\n\r\n            require(owner != address(0), \"Invalid address\");\r\n            require(!isOwner[owner], \"Owner not unique\");\r\n\r\n            isOwner[owner] = true;\r\n            owners.push(owner);\r\n        }\r\n        \r\n        numConfirmationsRequired = _numConfirmationsRequired;\r\n    }\r\n\r\n    receive() external payable {\r\n        emit Deposit(msg.sender, msg.value, address(this).balance);\r\n    }\r\n\r\n    fallback() external payable {}\r\n\r\n    function deposit() payable external {\r\n        emit Deposit(msg.sender, msg.value, address(this).balance);\r\n    }\r\n\r\n    // an address will propose a transaction to the multi sig wallet\r\n    function submitTransaction(address _to, uint _value, bytes memory _data) public onlyOwner {\r\n        uint txIndex = transactions.length;\r\n\r\n        transactions.push(\r\n            Transaction({\r\n                to: _to,\r\n                value: _value,\r\n                data: _data,\r\n                executed: false,\r\n                numConfirmations: 0\r\n            })\r\n        );\r\n\r\n        emit SubmitTransaction(msg.sender, txIndex, _to, _value, _data);\r\n    }\r\n\r\n    // addresses of the multi sig wallet can confirm the proposed transaction\r\n    function confirmTransaction(uint _txIndex) \r\n        public\r\n        onlyOwner \r\n        txExists(_txIndex) \r\n        notExecuted(_txIndex) \r\n        notConfirmed(_txIndex) {\r\n            //Transaction storage transaction = transactions[_txIndex];\r\n            //transaction.numConfirmations += 1;\r\n            //isConfirmed[_txIndex][msg.sender] = true;\r\n\r\n            isConfirmed[_txIndex][msg.sender] = true;\r\n            transactions[_txIndex].numConfirmations++;\r\n\r\n            emit ConfirmTransaction(msg.sender, _txIndex);\r\n    }\r\n\r\n    // execute the transaction\r\n    function executeTransaction(uint _txIndex) public onlyOwner txExists(_txIndex) notExecuted(_txIndex) {\r\n        Transaction storage transaction = transactions[_txIndex];\r\n\r\n        require(transaction.numConfirmations >= numConfirmationsRequired, \r\n            \"Not enough confirmations to execute tx\");\r\n        transaction.executed = true;\r\n\r\n        // Execute transaction\r\n        (bool success, ) = transaction.to.call{value: transaction.value}(transaction.data);\r\n        require(success, \"Transaction failed\");\r\n        \r\n        emit ExecuteTransaction(msg.sender, _txIndex);\r\n    }\r\n\r\n    // revoke the transaction \r\n    function revokeConfirmation(uint _txIndex) public onlyOwner txExists(_txIndex) isExecuted(_txIndex) {\r\n        require(isConfirmed[_txIndex][msg.sender], \"Sender has not confirmed the transaction\");\r\n        isConfirmed[_txIndex][msg.sender] = false;\r\n        transactions[_txIndex].numConfirmations--;\r\n\r\n        emit RevokeTransaction(msg.sender, _txIndex);\r\n    }\r\n\r\n    /* Getters */\r\n    function getOwners() public view returns(address[] memory) {\r\n        return owners;\r\n    }\r\n\r\n    function getTransactionCount() public view returns(uint) {\r\n        return transactions.length;\r\n    }\r\n    \r\n    function getTransaction(uint _txIndex) public view returns(\r\n        address to,\r\n        uint value,\r\n        bytes memory data,\r\n        bool executed,\r\n        uint numConfirmations\r\n    ) {\r\n        Transaction storage transaction = transactions[_txIndex];\r\n\r\n        return (\r\n            transaction.to,\r\n            transaction.value,\r\n            transaction.data,\r\n            transaction.executed,\r\n            transaction.numConfirmations\r\n        );\r\n    }   \r\n}\r\n\r\ncontract TestContract {\r\n    uint public i;\r\n\r\n    function callMe(uint j) public {\r\n        i += j;\r\n    }\r\n\r\n    function getData() public pure returns (bytes memory) {\r\n        return abi.encodeWithSignature(\"callMe(uint256)\", 123);\r\n    } \r\n}\r\n",
  "sourcePath": "C:\\Users\\Nathan\\Desktop\\multi-sig-wallet\\contracts\\MultiSigWallet.sol",
  "compiler": {
    "name": "solc",
    "version": "0.8.16+commit.07a7930e.Emscripten.clang"
  },
  "schemaVersion": "3.4.9",
  "updatedAt": "2022-08-25T14:39:27.452Z",
  "networkType": "ethereum",
  "devdoc": {
    "kind": "dev",
    "methods": {},
    "version": 1
  },
  "userdoc": {
    "kind": "user",
    "methods": {},
    "version": 1
  }
}