{
  "contractName": "TestContract",
  "abi": [
    {
      "inputs": [],
      "name": "i",
      "outputs": [
        {
          "internalType": "uint256",
          "name": "",
          "type": "uint256"
        }
      ],
      "stateMutability": "view",
      "type": "function"
    },
    {
      "inputs": [
        {
          "internalType": "uint256",
          "name": "j",
          "type": "uint256"
        }
      ],
      "name": "callMe",
      "outputs": [],
      "stateMutability": "nonpayable",
      "type": "function"
    },
    {
      "inputs": [],
      "name": "getData",
      "outputs": [
        {
          "internalType": "bytes",
          "name": "",
          "type": "bytes"
        }
      ],
      "stateMutability": "pure",
      "type": "function"
    }
  ],
  "bytecode": "0x608060405234801561001057600080fd5b5061039f806100206000396000f3fe608060405234801561001057600080fd5b50600436106100415760003560e01c80633bc5de3014610046578063e5aa3d5814610064578063e73620c314610082575b600080fd5b61004e61009e565b60405161005b91906101e5565b60405180910390f35b61006c610134565b6040516100799190610220565b60405180910390f35b61009c6004803603810190610097919061026c565b61013a565b005b6060607b6040516024016100b291906102eb565b6040516020818303038152906040527fe73620c3000000000000000000000000000000000000000000000000000000007bffffffffffffffffffffffffffffffffffffffffffffffffffffffff19166020820180517bffffffffffffffffffffffffffffffffffffffffffffffffffffffff8381831617835250505050905090565b60005481565b8060008082825461014b9190610335565b9250508190555050565b600081519050919050565b600082825260208201905092915050565b60005b8381101561018f578082015181840152602081019050610174565b60008484015250505050565b6000601f19601f8301169050919050565b60006101b782610155565b6101c18185610160565b93506101d1818560208601610171565b6101da8161019b565b840191505092915050565b600060208201905081810360008301526101ff81846101ac565b905092915050565b6000819050919050565b61021a81610207565b82525050565b60006020820190506102356000830184610211565b92915050565b600080fd5b61024981610207565b811461025457600080fd5b50565b60008135905061026681610240565b92915050565b6000602082840312156102825761028161023b565b5b600061029084828501610257565b91505092915050565b6000819050919050565b600060ff82169050919050565b6000819050919050565b60006102d56102d06102cb84610299565b6102b0565b6102a3565b9050919050565b6102e5816102ba565b82525050565b600060208201905061030060008301846102dc565b92915050565b7f4e487b7100000000000000000000000000000000000000000000000000000000600052601160045260246000fd5b600061034082610207565b915061034b83610207565b925082820190508082111561036357610362610306565b5b9291505056fea26469706673582212205545ce609804662a619ca57bafbefe880d793a7b9aa6b38c1bf195f144bc920064736f6c63430008100033",
  "immutableReferences": {},
  "source": "// SPDX-License-Identifier: MIT\r\npragma solidity >=0.7.0 <0.9.0;\r\n\r\n// [\"0x5B38Da6a701c568545dCfcB03FcB875f56beddC4\",\"0xAb8483F64d9C6d1EcF9b849Ae677dD3315835cb2\",\"0x4B20993Bc481177ec7E8f571ceCaE8A9e22C02db\"]\r\n// send ether to: 0x78731D3Ca6b7E34aC0F824c42a7cC18A495cabaB, 1000000000000000000, 0x00\r\n// call TestContract callMe() function: 0x5FD6eB55D12E759a21C09eF703fe0CBa1DC9d88D, 0, 0xe73620c3000000000000000000000000000000000000000000000000000000000000007b\r\n\r\ncontract MultiSigWallet {\r\n    event Deposit(address indexed sender, uint amount, uint balance); \r\n    event SubmitTransaction(address indexed owner, uint indexed txIndex, address indexed to, uint value, bytes data);\r\n    event ConfirmTransaction(address indexed owner, uint indexed txIndex);\r\n    event ExecuteTransaction(address indexed owner, uint indexed txIndex);\r\n    event RevokeTransaction(address indexed owner, uint indexed txIndex);\r\n    \r\n    /* State Variables */\r\n    address[] public owners;\r\n    uint public numConfirmationsRequired;\r\n    mapping(address => bool) public isOwner;\r\n\r\n    /* \r\n        When a tranaction is submitted a new instance of transaction is created\r\n        and pushed to the transactions array.\r\n    */\r\n    struct Transaction {\r\n        address to; // the address the transaction is sent to\r\n        uint value; // the amount of ether sent to the address\r\n        bytes data; // the transaction data that can be use when transaction is sent to another contract\r\n        bool executed; // if the transaction has executed\r\n        uint numConfirmations; // \r\n    }\r\n\r\n    Transaction[] public transactions;\r\n\r\n    // for each transaction index we will have a mapping of key addresses with bool values\r\n    // when an owner approves their address is stored in the mapping as true\r\n    mapping(uint => mapping(address => bool)) isConfirmed; \r\n\r\n    /* Modifiers */\r\n    modifier onlyOwner() {\r\n        require(isOwner[msg.sender], \"Not an owner\");\r\n        _;\r\n    }\r\n\r\n    modifier txExists(uint _txIndex) {\r\n        require(_txIndex < transactions.length, \"Transaction does not exist\");\r\n        _;\r\n    }\r\n\r\n    modifier notExecuted(uint _txIndex) {\r\n        require(!transactions[_txIndex].executed, \"Transaction has already executed\");\r\n        _;\r\n    }\r\n\r\n    modifier notConfirmed(uint _txIndex) {\r\n        require(!isConfirmed[_txIndex][msg.sender], \"Transaction is already confirmed\");\r\n        _;\r\n    }\r\n\r\n    modifier isExecuted(uint _txIndex) {\r\n        require(transactions[_txIndex].executed, \"Transaction has not executed\");\r\n        _;\r\n    }\r\n\r\n    constructor(address[] memory _owners, uint _numConfirmationsRequired) {\r\n        require(_owners.length > 0, \"Owners required\");\r\n        require(_numConfirmationsRequired > 0 && \r\n            _numConfirmationsRequired <= _owners.length, \"Invalid number of required confirmations\");\r\n\r\n        for (uint i = 0; i < _owners.length; ++i) {\r\n            address owner = _owners[i];\r\n\r\n            require(owner != address(0), \"Invalid address\");\r\n            require(!isOwner[owner], \"Owner not unique\");\r\n\r\n            isOwner[owner] = true;\r\n            owners.push(owner);\r\n        }\r\n        \r\n        numConfirmationsRequired = _numConfirmationsRequired;\r\n    }\r\n\r\n    receive() external payable {\r\n        emit Deposit(msg.sender, msg.value, address(this).balance);\r\n    }\r\n\r\n    fallback() external payable {}\r\n\r\n    function deposit() payable external {\r\n        emit Deposit(msg.sender, msg.value, address(this).balance);\r\n    }\r\n\r\n    // an address will propose a transaction to the multi sig wallet\r\n    function submitTransaction(address _to, uint _value, bytes memory _data) public onlyOwner {\r\n        uint txIndex = transactions.length;\r\n\r\n        transactions.push(\r\n            Transaction({\r\n                to: _to,\r\n                value: _value,\r\n                data: _data,\r\n                executed: false,\r\n                numConfirmations: 0\r\n            })\r\n        );\r\n\r\n        emit SubmitTransaction(msg.sender, txIndex, _to, _value, _data);\r\n    }\r\n\r\n    // addresses of the multi sig wallet can confirm the proposed transaction\r\n    function confirmTransaction(uint _txIndex) \r\n        public\r\n        onlyOwner \r\n        txExists(_txIndex) \r\n        notExecuted(_txIndex) \r\n        notConfirmed(_txIndex) {\r\n            //Transaction storage transaction = transactions[_txIndex];\r\n            //transaction.numConfirmations += 1;\r\n            //isConfirmed[_txIndex][msg.sender] = true;\r\n\r\n            isConfirmed[_txIndex][msg.sender] = true;\r\n            transactions[_txIndex].numConfirmations++;\r\n\r\n            emit ConfirmTransaction(msg.sender, _txIndex);\r\n    }\r\n\r\n    // execute the transaction\r\n    function executeTransaction(uint _txIndex) public onlyOwner txExists(_txIndex) notExecuted(_txIndex) {\r\n        Transaction storage transaction = transactions[_txIndex];\r\n\r\n        require(transaction.numConfirmations >= numConfirmationsRequired, \r\n            \"Not enough confirmations to execute tx\");\r\n        transaction.executed = true;\r\n\r\n        // Execute transaction\r\n        (bool success, ) = transaction.to.call{value: transaction.value}(transaction.data);\r\n        require(success, \"Transaction failed\");\r\n        \r\n        emit ExecuteTransaction(msg.sender, _txIndex);\r\n    }\r\n\r\n    // revoke the transaction \r\n    function revokeConfirmation(uint _txIndex) public onlyOwner txExists(_txIndex) isExecuted(_txIndex) {\r\n        require(isConfirmed[_txIndex][msg.sender], \"Sender has not confirmed the transaction\");\r\n        isConfirmed[_txIndex][msg.sender] = false;\r\n        transactions[_txIndex].numConfirmations--;\r\n\r\n        emit RevokeTransaction(msg.sender, _txIndex);\r\n    }\r\n\r\n    /* Getters */\r\n    function getOwners() public view returns(address[] memory) {\r\n        return owners;\r\n    }\r\n\r\n    function getTransactionCount() public view returns(uint) {\r\n        return transactions.length;\r\n    }\r\n    \r\n    function getTransaction(uint _txIndex) public view returns(\r\n        address to,\r\n        uint value,\r\n        bytes memory data,\r\n        bool executed,\r\n        uint numConfirmations\r\n    ) {\r\n        Transaction storage transaction = transactions[_txIndex];\r\n\r\n        return (\r\n            transaction.to,\r\n            transaction.value,\r\n            transaction.data,\r\n            transaction.executed,\r\n            transaction.numConfirmations\r\n        );\r\n    }   \r\n}\r\n\r\ncontract TestContract {\r\n    uint public i;\r\n\r\n    function callMe(uint j) public {\r\n        i += j;\r\n    }\r\n\r\n    function getData() public pure returns (bytes memory) {\r\n        return abi.encodeWithSignature(\"callMe(uint256)\", 123);\r\n    } \r\n}\r\n",
  "sourcePath": "C:\\Users\\Nathan\\Desktop\\multi-sig-wallet\\contracts\\MultiSigWallet.sol",
  "compiler": {
    "name": "solc",
    "version": "0.8.16+commit.07a7930e.Emscripten.clang"
  },
  "schemaVersion": "3.4.9",
  "updatedAt": "2022-08-25T14:36:53.942Z",
  "devdoc": {
    "kind": "dev",
    "methods": {},
    "version": 1
  },
  "userdoc": {
    "kind": "user",
    "methods": {},
    "version": 1
  }
}